{
  "_format": "hh-sol-artifact-1",
  "contractName": "Presale",
  "sourceName": "contracts/Presale.sol",
  "abi": [
    {
      "inputs": [
        {
          "internalType": "uint256",
          "name": "rate",
          "type": "uint256"
        },
        {
          "internalType": "address payable",
          "name": "wallet",
          "type": "address"
        },
        {
          "internalType": "contract IERC20",
          "name": "token",
          "type": "address"
        },
        {
          "internalType": "uint256",
          "name": "tokenDecimals",
          "type": "uint256"
        }
      ],
      "stateMutability": "nonpayable",
      "type": "constructor"
    },
    {
      "anonymous": false,
      "inputs": [
        {
          "indexed": true,
          "internalType": "address",
          "name": "previousOwner",
          "type": "address"
        },
        {
          "indexed": true,
          "internalType": "address",
          "name": "newOwner",
          "type": "address"
        }
      ],
      "name": "OwnershipTransferred",
      "type": "event"
    },
    {
      "anonymous": false,
      "inputs": [
        {
          "indexed": false,
          "internalType": "address",
          "name": "recipient",
          "type": "address"
        },
        {
          "indexed": false,
          "internalType": "uint256",
          "name": "amount",
          "type": "uint256"
        }
      ],
      "name": "Refund",
      "type": "event"
    },
    {
      "anonymous": false,
      "inputs": [
        {
          "indexed": false,
          "internalType": "address",
          "name": "purchaser",
          "type": "address"
        },
        {
          "indexed": false,
          "internalType": "address",
          "name": "beneficiary",
          "type": "address"
        },
        {
          "indexed": false,
          "internalType": "uint256",
          "name": "value",
          "type": "uint256"
        },
        {
          "indexed": false,
          "internalType": "uint256",
          "name": "amount",
          "type": "uint256"
        }
      ],
      "name": "TokensPurchased",
      "type": "event"
    },
    {
      "inputs": [
        {
          "internalType": "address",
          "name": "",
          "type": "address"
        }
      ],
      "name": "_contributions",
      "outputs": [
        {
          "internalType": "uint256",
          "name": "",
          "type": "uint256"
        }
      ],
      "stateMutability": "view",
      "type": "function"
    },
    {
      "inputs": [],
      "name": "_rate",
      "outputs": [
        {
          "internalType": "uint256",
          "name": "",
          "type": "uint256"
        }
      ],
      "stateMutability": "view",
      "type": "function"
    },
    {
      "inputs": [],
      "name": "_token",
      "outputs": [
        {
          "internalType": "contract IERC20",
          "name": "",
          "type": "address"
        }
      ],
      "stateMutability": "view",
      "type": "function"
    },
    {
      "inputs": [],
      "name": "_wallet",
      "outputs": [
        {
          "internalType": "address payable",
          "name": "",
          "type": "address"
        }
      ],
      "stateMutability": "view",
      "type": "function"
    },
    {
      "inputs": [],
      "name": "_weiRaised",
      "outputs": [
        {
          "internalType": "uint256",
          "name": "",
          "type": "uint256"
        }
      ],
      "stateMutability": "view",
      "type": "function"
    },
    {
      "inputs": [],
      "name": "availableTokensICO",
      "outputs": [
        {
          "internalType": "uint256",
          "name": "",
          "type": "uint256"
        }
      ],
      "stateMutability": "view",
      "type": "function"
    },
    {
      "inputs": [
        {
          "internalType": "address",
          "name": "beneficiary",
          "type": "address"
        }
      ],
      "name": "buyTokens",
      "outputs": [],
      "stateMutability": "payable",
      "type": "function"
    },
    {
      "inputs": [
        {
          "internalType": "address",
          "name": "addr",
          "type": "address"
        }
      ],
      "name": "checkContribution",
      "outputs": [
        {
          "internalType": "uint256",
          "name": "",
          "type": "uint256"
        }
      ],
      "stateMutability": "view",
      "type": "function"
    },
    {
      "inputs": [],
      "name": "claimTokens",
      "outputs": [],
      "stateMutability": "nonpayable",
      "type": "function"
    },
    {
      "inputs": [],
      "name": "endICO",
      "outputs": [
        {
          "internalType": "uint256",
          "name": "",
          "type": "uint256"
        }
      ],
      "stateMutability": "view",
      "type": "function"
    },
    {
      "inputs": [],
      "name": "getEndDate",
      "outputs": [
        {
          "internalType": "uint256",
          "name": "",
          "type": "uint256"
        }
      ],
      "stateMutability": "view",
      "type": "function"
    },
    {
      "inputs": [],
      "name": "getTimeStamp",
      "outputs": [
        {
          "internalType": "uint256",
          "name": "",
          "type": "uint256"
        }
      ],
      "stateMutability": "view",
      "type": "function"
    },
    {
      "inputs": [],
      "name": "hardCap",
      "outputs": [
        {
          "internalType": "uint256",
          "name": "",
          "type": "uint256"
        }
      ],
      "stateMutability": "view",
      "type": "function"
    },
    {
      "inputs": [],
      "name": "maxPurchase",
      "outputs": [
        {
          "internalType": "uint256",
          "name": "",
          "type": "uint256"
        }
      ],
      "stateMutability": "view",
      "type": "function"
    },
    {
      "inputs": [],
      "name": "minPurchase",
      "outputs": [
        {
          "internalType": "uint256",
          "name": "",
          "type": "uint256"
        }
      ],
      "stateMutability": "view",
      "type": "function"
    },
    {
      "inputs": [],
      "name": "owner",
      "outputs": [
        {
          "internalType": "address",
          "name": "",
          "type": "address"
        }
      ],
      "stateMutability": "view",
      "type": "function"
    },
    {
      "inputs": [],
      "name": "refundMe",
      "outputs": [],
      "stateMutability": "nonpayable",
      "type": "function"
    },
    {
      "inputs": [],
      "name": "refundStartDate",
      "outputs": [
        {
          "internalType": "uint256",
          "name": "",
          "type": "uint256"
        }
      ],
      "stateMutability": "view",
      "type": "function"
    },
    {
      "inputs": [
        {
          "internalType": "uint256",
          "name": "amount",
          "type": "uint256"
        }
      ],
      "name": "setAvailableTokens",
      "outputs": [],
      "stateMutability": "nonpayable",
      "type": "function"
    },
    {
      "inputs": [
        {
          "internalType": "uint256",
          "name": "value",
          "type": "uint256"
        }
      ],
      "name": "setHardCap",
      "outputs": [],
      "stateMutability": "nonpayable",
      "type": "function"
    },
    {
      "inputs": [
        {
          "internalType": "uint256",
          "name": "value",
          "type": "uint256"
        }
      ],
      "name": "setMaxPurchase",
      "outputs": [],
      "stateMutability": "nonpayable",
      "type": "function"
    },
    {
      "inputs": [
        {
          "internalType": "uint256",
          "name": "value",
          "type": "uint256"
        }
      ],
      "name": "setMinPurchase",
      "outputs": [],
      "stateMutability": "nonpayable",
      "type": "function"
    },
    {
      "inputs": [
        {
          "internalType": "uint256",
          "name": "newRate",
          "type": "uint256"
        }
      ],
      "name": "setRate",
      "outputs": [],
      "stateMutability": "nonpayable",
      "type": "function"
    },
    {
      "inputs": [
        {
          "internalType": "uint256",
          "name": "value",
          "type": "uint256"
        }
      ],
      "name": "setSoftCap",
      "outputs": [],
      "stateMutability": "nonpayable",
      "type": "function"
    },
    {
      "inputs": [
        {
          "internalType": "address payable",
          "name": "newWallet",
          "type": "address"
        }
      ],
      "name": "setWalletReceiver",
      "outputs": [],
      "stateMutability": "nonpayable",
      "type": "function"
    },
    {
      "inputs": [],
      "name": "softCap",
      "outputs": [
        {
          "internalType": "uint256",
          "name": "",
          "type": "uint256"
        }
      ],
      "stateMutability": "view",
      "type": "function"
    },
    {
      "inputs": [
        {
          "internalType": "uint256",
          "name": "endDate",
          "type": "uint256"
        },
        {
          "internalType": "uint256",
          "name": "_minPurchase",
          "type": "uint256"
        },
        {
          "internalType": "uint256",
          "name": "_maxPurchase",
          "type": "uint256"
        },
        {
          "internalType": "uint256",
          "name": "_softCap",
          "type": "uint256"
        },
        {
          "internalType": "uint256",
          "name": "_hardCap",
          "type": "uint256"
        }
      ],
      "name": "startICO",
      "outputs": [],
      "stateMutability": "nonpayable",
      "type": "function"
    },
    {
      "inputs": [],
      "name": "startRefund",
      "outputs": [
        {
          "internalType": "bool",
          "name": "",
          "type": "bool"
        }
      ],
      "stateMutability": "view",
      "type": "function"
    },
    {
      "inputs": [],
      "name": "stopICO",
      "outputs": [],
      "stateMutability": "nonpayable",
      "type": "function"
    },
    {
      "inputs": [
        {
          "internalType": "contract IERC20",
          "name": "tokenAddress",
          "type": "address"
        }
      ],
      "name": "takeTokens",
      "outputs": [],
      "stateMutability": "nonpayable",
      "type": "function"
    },
    {
      "inputs": [
        {
          "internalType": "address",
          "name": "newOwner",
          "type": "address"
        }
      ],
      "name": "transferOwnership",
      "outputs": [],
      "stateMutability": "nonpayable",
      "type": "function"
    },
    {
      "inputs": [],
      "name": "weiRaised",
      "outputs": [
        {
          "internalType": "uint256",
          "name": "",
          "type": "uint256"
        }
      ],
      "stateMutability": "view",
      "type": "function"
    },
    {
      "inputs": [],
      "name": "withdraw",
      "outputs": [],
      "stateMutability": "nonpayable",
      "type": "function"
    },
    {
      "stateMutability": "payable",
      "type": "receive"
    }
  ],
  "bytecode": "0x60806040526000600e60006101000a81548160ff0219169083151502179055503480156200002c57600080fd5b5060405162003a8138038062003a8183398181016040528101906200005291906200032c565b600160008190555060006200006c620002df60201b60201c565b905080600160006101000a81548173ffffffffffffffffffffffffffffffffffffffff021916908373ffffffffffffffffffffffffffffffffffffffff1602179055508073ffffffffffffffffffffffffffffffffffffffff16600073ffffffffffffffffffffffffffffffffffffffff167f8be0079c531659141344cd1fd0a4f28419497f9722a3daafe3b4186f6b6457e060405160405180910390a3506000841162000151576040517f08c379a0000000000000000000000000000000000000000000000000000000008152600401620001489062000451565b60405180910390fd5b600073ffffffffffffffffffffffffffffffffffffffff168373ffffffffffffffffffffffffffffffffffffffff161415620001c4576040517f08c379a0000000000000000000000000000000000000000000000000000000008152600401620001bb906200040d565b60405180910390fd5b600073ffffffffffffffffffffffffffffffffffffffff168273ffffffffffffffffffffffffffffffffffffffff16141562000237576040517f08c379a00000000000000000000000000000000000000000000000000000000081526004016200022e906200042f565b60405180910390fd5b8360068190555082600560006101000a81548173ffffffffffffffffffffffffffffffffffffffff021916908373ffffffffffffffffffffffffffffffffffffffff16021790555081600360006101000a81548173ffffffffffffffffffffffffffffffffffffffff021916908373ffffffffffffffffffffffffffffffffffffffff160217905550806012620002cf919062000484565b6004819055505050505062000669565b600033905090565b600081519050620002f8816200061b565b92915050565b6000815190506200030f8162000635565b92915050565b60008151905062000326816200064f565b92915050565b600080600080608085870312156200034357600080fd5b6000620003538782880162000315565b94505060206200036687828801620002e7565b93505060406200037987828801620002fe565b92505060606200038c8782880162000315565b91505092959194509250565b6000620003a760248362000473565b9150620003b48262000554565b604082019050919050565b6000620003ce60238362000473565b9150620003db82620005a3565b604082019050919050565b6000620003f560138362000473565b91506200040282620005f2565b602082019050919050565b60006020820190508181036000830152620004288162000398565b9050919050565b600060208201905081810360008301526200044a81620003bf565b9050919050565b600060208201905081810360008301526200046c81620003e6565b9050919050565b600082825260208201905092915050565b600062000491826200051b565b91506200049e836200051b565b925082821015620004b457620004b362000525565b5b828203905092915050565b6000620004cc82620004fb565b9050919050565b6000620004e082620004fb565b9050919050565b6000620004f482620004bf565b9050919050565b600073ffffffffffffffffffffffffffffffffffffffff82169050919050565b6000819050919050565b7f4e487b7100000000000000000000000000000000000000000000000000000000600052601160045260246000fd5b7f5072652d53616c653a2077616c6c657420697320746865207a65726f2061646460008201527f7265737300000000000000000000000000000000000000000000000000000000602082015250565b7f5072652d53616c653a20746f6b656e20697320746865207a65726f206164647260008201527f6573730000000000000000000000000000000000000000000000000000000000602082015250565b7f5072652d53616c653a2072617465206973203000000000000000000000000000600082015250565b6200062681620004d3565b81146200063257600080fd5b50565b6200064081620004e7565b81146200064c57600080fd5b50565b6200065a816200051b565b81146200066657600080fd5b50565b61340880620006796000396000f3fe6080604052600436106101f25760003560e01c8063a41a028b1161010d578063da235b22116100a0578063ec8ac4d81161006f578063ec8ac4d8146106e6578063ecd0c0c314610702578063f2fde38b1461072d578063f6d893ec14610756578063fb86a4041461077f57610269565b8063da235b221461063e578063e3cef7a114610669578063e8307d0014610692578063e9fdfd9f146106bb57610269565b8063c8e569a8116100dc578063c8e569a8146105ac578063d18d944b146105c3578063d572d5f7146105ec578063d5cf5c721461061557610269565b8063a41a028b146104ee578063ab0ced0e14610519578063adf4a14414610556578063b13564881461058157610269565b80635a9e426b116101855780638da5cb5b116101545780638da5cb5b14610442578063906a26e01461046d57806394a5aa8d14610498578063977b055b146104c357610269565b80635a9e426b146103ac578063610757e4146103c357806371189742146103ee57806383bebced1461041757610269565b80633ccfd60b116101c15780633ccfd60b146103285780634042b66f1461033f57806348c54b9d1461036a5780634f2484091461038157610269565b80631e6a610d1461026e578063298b6a9f146102ab57806333b5b62e146102d457806334fcf437146102ff57610269565b3661026957600060085411801561020a575060085442105b156102245761021f61021a6107aa565b6107b2565b610267565b60006008819055506040517f08c379a000000000000000000000000000000000000000000000000000000000815260040161025e90612a2c565b60405180910390fd5b005b600080fd5b34801561027a57600080fd5b5061029560048036038101906102909190612248565b610991565b6040516102a29190612aec565b60405180910390f35b3480156102b757600080fd5b506102d260048036038101906102cd919061233e565b6109a9565b005b3480156102e057600080fd5b506102e9610cd8565b6040516102f69190612aec565b60405180910390f35b34801561030b57600080fd5b50610326600480360381019061032191906122ec565b610cde565b005b34801561033457600080fd5b5061033d610dc3565b005b34801561034b57600080fd5b50610354610f86565b6040516103619190612aec565b60405180910390f35b34801561037657600080fd5b5061037f610f90565b005b34801561038d57600080fd5b50610396611138565b6040516103a39190612aec565b60405180910390f35b3480156103b857600080fd5b506103c161113e565b005b3480156103cf57600080fd5b506103d86112fc565b6040516103e59190612742565b60405180910390f35b3480156103fa57600080fd5b50610415600480360381019061041091906122ec565b611322565b005b34801561042357600080fd5b5061042c6113c3565b6040516104399190612aec565b60405180910390f35b34801561044e57600080fd5b506104576113c9565b6040516104649190612727565b60405180910390f35b34801561047957600080fd5b506104826113f3565b60405161048f9190612aec565b60405180910390f35b3480156104a457600080fd5b506104ad6113f9565b6040516104ba9190612aec565b60405180910390f35b3480156104cf57600080fd5b506104d86113ff565b6040516104e59190612aec565b60405180910390f35b3480156104fa57600080fd5b50610503611405565b6040516105109190612aec565b60405180910390f35b34801561052557600080fd5b50610540600480360381019061053b9190612248565b61140b565b60405161054d9190612aec565b60405180910390f35b34801561056257600080fd5b5061056b611454565b60405161057891906127f4565b60405180910390f35b34801561058d57600080fd5b50610596611467565b6040516105a39190612aec565b60405180910390f35b3480156105b857600080fd5b506105c1611471565b005b3480156105cf57600080fd5b506105ea60048036038101906105e591906122ec565b6115ad565b005b3480156105f857600080fd5b50610613600480360381019061060e9190612271565b61164e565b005b34801561062157600080fd5b5061063c600480360381019061063791906122ec565b611729565b005b34801561064a57600080fd5b506106536117ca565b6040516106609190612aec565b60405180910390f35b34801561067557600080fd5b50610690600480360381019061068b91906122c3565b6117d2565b005b34801561069e57600080fd5b506106b960048036038101906106b491906122ec565b611a37565b005b3480156106c757600080fd5b506106d0611ad8565b6040516106dd9190612aec565b60405180910390f35b61070060048036038101906106fb9190612248565b6107b2565b005b34801561070e57600080fd5b50610717611ade565b604051610724919061280f565b60405180910390f35b34801561073957600080fd5b50610754600480360381019061074f9190612248565b611b04565b005b34801561076257600080fd5b5061077d600480360381019061077891906122ec565b611ccb565b005b34801561078b57600080fd5b50610794611db0565b6040516107a19190612aec565b60405180910390f35b600033905090565b600260005414156107f8576040517f08c379a00000000000000000000000000000000000000000000000000000000081526004016107ef90612a8c565b60405180910390fd5b60026000819055506000600854118015610813575060085442105b801561082157506000600d54115b610860576040517f08c379a00000000000000000000000000000000000000000000000000000000081526004016108579061296c565b60405180910390fd5b600034905061086f8282611db6565b600061087a82611f9b565b905061089182600754611fd990919063ffffffff16565b60078190555080600d546108a59190612d75565b600d819055506108fd82600260008673ffffffffffffffffffffffffffffffffffffffff1673ffffffffffffffffffffffffffffffffffffffff16815260200190815260200160002054611fd990919063ffffffff16565b600260008573ffffffffffffffffffffffffffffffffffffffff1673ffffffffffffffffffffffffffffffffffffffff168152602001908152602001600020819055507f6faf93231a456e552dbc9961f58d9713ee4f2e69d15f1975b050ef0911053a7b6109696107aa565b84848460405161097c949392919061275d565b60405180910390a15050600160008190555050565b60026020528060005260406000206000915090505481565b6109b16107aa565b73ffffffffffffffffffffffffffffffffffffffff16600160009054906101000a900473ffffffffffffffffffffffffffffffffffffffff1673ffffffffffffffffffffffffffffffffffffffff1614610a40576040517f08c379a0000000000000000000000000000000000000000000000000000000008152600401610a37906129ec565b60405180910390fd5b4260085410610a84576040517f08c379a0000000000000000000000000000000000000000000000000000000008152600401610a7b90612a6c565b60405180910390fd5b6000600e60006101000a81548160ff0219169083151502179055506000600f81905550600360009054906101000a900473ffffffffffffffffffffffffffffffffffffffff1673ffffffffffffffffffffffffffffffffffffffff166370a08231306040518263ffffffff1660e01b8152600401610b029190612727565b60206040518083038186803b158015610b1a57600080fd5b505afa158015610b2e573d6000803e3d6000fd5b505050506040513d601f19601f82011682018060405250810190610b529190612315565b600d81905550428511610b9a576040517f08c379a0000000000000000000000000000000000000000000000000000000008152600401610b91906128cc565b60405180910390fd5b808210610bdc576040517f08c379a0000000000000000000000000000000000000000000000000000000008152600401610bd39061284c565b60405180910390fd5b828410610c1e576040517f08c379a0000000000000000000000000000000000000000000000000000000008152600401610c159061294c565b60405180910390fd5b6000600d5411610c63576040517f08c379a0000000000000000000000000000000000000000000000000000000008152600401610c5a9061288c565b60405180910390fd5b60008411610ca6576040517f08c379a0000000000000000000000000000000000000000000000000000000008152600401610c9d9061298c565b60405180910390fd5b846008819055508360098190555082600a8190555081600c8190555080600b8190555060006007819055505050505050565b60095481565b610ce66107aa565b73ffffffffffffffffffffffffffffffffffffffff16600160009054906101000a900473ffffffffffffffffffffffffffffffffffffffff1673ffffffffffffffffffffffffffffffffffffffff1614610d75576040517f08c379a0000000000000000000000000000000000000000000000000000000008152600401610d6c906129ec565b60405180910390fd5b4260085410610db9576040517f08c379a0000000000000000000000000000000000000000000000000000000008152600401610db090612a6c565b60405180910390fd5b8060068190555050565b610dcb6107aa565b73ffffffffffffffffffffffffffffffffffffffff16600160009054906101000a900473ffffffffffffffffffffffffffffffffffffffff1673ffffffffffffffffffffffffffffffffffffffff1614610e5a576040517f08c379a0000000000000000000000000000000000000000000000000000000008152600401610e51906129ec565b60405180910390fd5b4260085410610e9e576040517f08c379a0000000000000000000000000000000000000000000000000000000008152600401610e9590612a6c565b60405180910390fd5b60001515600e60009054906101000a900460ff1615151480610ecf5750426203f480600f54610ecd9190612b23565b105b610ed857600080fd5b60004711610f1b576040517f08c379a0000000000000000000000000000000000000000000000000000000008152600401610f1290612acc565b60405180910390fd5b600560009054906101000a900473ffffffffffffffffffffffffffffffffffffffff1673ffffffffffffffffffffffffffffffffffffffff166108fc479081150290604051600060405180830381858888f19350505050158015610f83573d6000803e3d6000fd5b50565b6000600754905090565b4260085410610fd4576040517f08c379a0000000000000000000000000000000000000000000000000000000008152600401610fcb90612a6c565b60405180910390fd5b60001515600e60009054906101000a900460ff16151514610ff457600080fd5b600061103e600260003373ffffffffffffffffffffffffffffffffffffffff1673ffffffffffffffffffffffffffffffffffffffff16815260200190815260200160002054611f9b565b90506000600260003373ffffffffffffffffffffffffffffffffffffffff1673ffffffffffffffffffffffffffffffffffffffff16815260200190815260200160002081905550600360009054906101000a900473ffffffffffffffffffffffffffffffffffffffff1673ffffffffffffffffffffffffffffffffffffffff1663a9059cbb33836040518363ffffffff1660e01b81526004016110e29291906127cb565b602060405180830381600087803b1580156110fc57600080fd5b505af1158015611110573d6000803e3d6000fd5b505050506040513d601f19601f82011682018060405250810190611134919061229a565b5050565b60085481565b4260085410611182576040517f08c379a000000000000000000000000000000000000000000000000000000000815260040161117990612a6c565b60405180910390fd5b60011515600e60009054906101000a900460ff161515146111d8576040517f08c379a00000000000000000000000000000000000000000000000000000000081526004016111cf9061290c565b60405180910390fd5b6000600260003373ffffffffffffffffffffffffffffffffffffffff1673ffffffffffffffffffffffffffffffffffffffff1681526020019081526020016000205490508047106112f9576000600260003373ffffffffffffffffffffffffffffffffffffffff1673ffffffffffffffffffffffffffffffffffffffff1681526020019081526020016000208190555060008111156112f85760003390508073ffffffffffffffffffffffffffffffffffffffff166108fc839081150290604051600060405180830381858888f193505050501580156112bc573d6000803e3d6000fd5b507fbb28353e4598c3b9199101a66e0989549b659a59a54d2c27fbb183f1932c8e6d33836040516112ee9291906127cb565b60405180910390a1505b5b50565b600560009054906101000a900473ffffffffffffffffffffffffffffffffffffffff1681565b61132a6107aa565b73ffffffffffffffffffffffffffffffffffffffff16600160009054906101000a900473ffffffffffffffffffffffffffffffffffffffff1673ffffffffffffffffffffffffffffffffffffffff16146113b9576040517f08c379a00000000000000000000000000000000000000000000000000000000081526004016113b0906129ec565b60405180910390fd5b80600a8190555050565b60065481565b6000600160009054906101000a900473ffffffffffffffffffffffffffffffffffffffff16905090565b600c5481565b60075481565b600a5481565b600d5481565b6000600260008373ffffffffffffffffffffffffffffffffffffffff1673ffffffffffffffffffffffffffffffffffffffff168152602001908152602001600020549050919050565b600e60009054906101000a900460ff1681565b6000600854905090565b6114796107aa565b73ffffffffffffffffffffffffffffffffffffffff16600160009054906101000a900473ffffffffffffffffffffffffffffffffffffffff1673ffffffffffffffffffffffffffffffffffffffff1614611508576040517f08c379a00000000000000000000000000000000000000000000000000000000081526004016114ff906129ec565b60405180910390fd5b600060085411801561151b575060085442105b801561152957506000600d54115b611568576040517f08c379a000000000000000000000000000000000000000000000000000000000815260040161155f9061296c565b60405180910390fd5b6000600881905550600c546007541061158857611583612037565b6115ab565b6001600e60006101000a81548160ff02191690831515021790555042600f819055505b565b6115b56107aa565b73ffffffffffffffffffffffffffffffffffffffff16600160009054906101000a900473ffffffffffffffffffffffffffffffffffffffff1673ffffffffffffffffffffffffffffffffffffffff1614611644576040517f08c379a000000000000000000000000000000000000000000000000000000000815260040161163b906129ec565b60405180910390fd5b80600b8190555050565b6116566107aa565b73ffffffffffffffffffffffffffffffffffffffff16600160009054906101000a900473ffffffffffffffffffffffffffffffffffffffff1673ffffffffffffffffffffffffffffffffffffffff16146116e5576040517f08c379a00000000000000000000000000000000000000000000000000000000081526004016116dc906129ec565b60405180910390fd5b80600560006101000a81548173ffffffffffffffffffffffffffffffffffffffff021916908373ffffffffffffffffffffffffffffffffffffffff16021790555050565b6117316107aa565b73ffffffffffffffffffffffffffffffffffffffff16600160009054906101000a900473ffffffffffffffffffffffffffffffffffffffff1673ffffffffffffffffffffffffffffffffffffffff16146117c0576040517f08c379a00000000000000000000000000000000000000000000000000000000081526004016117b7906129ec565b60405180910390fd5b80600c8190555050565b600042905090565b6117da6107aa565b73ffffffffffffffffffffffffffffffffffffffff16600160009054906101000a900473ffffffffffffffffffffffffffffffffffffffff1673ffffffffffffffffffffffffffffffffffffffff1614611869576040517f08c379a0000000000000000000000000000000000000000000000000000000008152600401611860906129ec565b60405180910390fd5b42600854106118ad576040517f08c379a00000000000000000000000000000000000000000000000000000000081526004016118a490612a6c565b60405180910390fd5b600081905060008173ffffffffffffffffffffffffffffffffffffffff166370a08231306040518263ffffffff1660e01b81526004016118ed9190612727565b60206040518083038186803b15801561190557600080fd5b505afa158015611919573d6000803e3d6000fd5b505050506040513d601f19601f8201168201806040525081019061193d9190612315565b905060008111611982576040517f08c379a000000000000000000000000000000000000000000000000000000000815260040161197990612a0c565b60405180910390fd5b8173ffffffffffffffffffffffffffffffffffffffff1663a9059cbb600560009054906101000a900473ffffffffffffffffffffffffffffffffffffffff16836040518363ffffffff1660e01b81526004016119df9291906127a2565b602060405180830381600087803b1580156119f957600080fd5b505af1158015611a0d573d6000803e3d6000fd5b505050506040513d601f19601f82011682018060405250810190611a31919061229a565b50505050565b611a3f6107aa565b73ffffffffffffffffffffffffffffffffffffffff16600160009054906101000a900473ffffffffffffffffffffffffffffffffffffffff1673ffffffffffffffffffffffffffffffffffffffff1614611ace576040517f08c379a0000000000000000000000000000000000000000000000000000000008152600401611ac5906129ec565b60405180910390fd5b8060098190555050565b600f5481565b600360009054906101000a900473ffffffffffffffffffffffffffffffffffffffff1681565b611b0c6107aa565b73ffffffffffffffffffffffffffffffffffffffff16600160009054906101000a900473ffffffffffffffffffffffffffffffffffffffff1673ffffffffffffffffffffffffffffffffffffffff1614611b9b576040517f08c379a0000000000000000000000000000000000000000000000000000000008152600401611b92906129ec565b60405180910390fd5b600073ffffffffffffffffffffffffffffffffffffffff168173ffffffffffffffffffffffffffffffffffffffff161415611c0b576040517f08c379a0000000000000000000000000000000000000000000000000000000008152600401611c02906128ac565b60405180910390fd5b8073ffffffffffffffffffffffffffffffffffffffff16600160009054906101000a900473ffffffffffffffffffffffffffffffffffffffff1673ffffffffffffffffffffffffffffffffffffffff167f8be0079c531659141344cd1fd0a4f28419497f9722a3daafe3b4186f6b6457e060405160405180910390a380600160006101000a81548173ffffffffffffffffffffffffffffffffffffffff021916908373ffffffffffffffffffffffffffffffffffffffff16021790555050565b611cd36107aa565b73ffffffffffffffffffffffffffffffffffffffff16600160009054906101000a900473ffffffffffffffffffffffffffffffffffffffff1673ffffffffffffffffffffffffffffffffffffffff1614611d62576040517f08c379a0000000000000000000000000000000000000000000000000000000008152600401611d59906129ec565b60405180910390fd5b4260085410611da6576040517f08c379a0000000000000000000000000000000000000000000000000000000008152600401611d9d90612a6c565b60405180910390fd5b80600d8190555050565b600b5481565b600073ffffffffffffffffffffffffffffffffffffffff168273ffffffffffffffffffffffffffffffffffffffff161415611e26576040517f08c379a0000000000000000000000000000000000000000000000000000000008152600401611e1d90612a4c565b60405180910390fd5b6000811415611e6a576040517f08c379a0000000000000000000000000000000000000000000000000000000008152600401611e6190612aac565b60405180910390fd5b600954811015611eaf576040517f08c379a0000000000000000000000000000000000000000000000000000000008152600401611ea6906129ac565b60405180910390fd5b600a54611f0482600260008673ffffffffffffffffffffffffffffffffffffffff1673ffffffffffffffffffffffffffffffffffffffff16815260200190815260200160002054611fd990919063ffffffff16565b1115611f45576040517f08c379a0000000000000000000000000000000000000000000000000000000008152600401611f3c9061286c565b60405180910390fd5b600b5481600754611f569190612b23565b1115611f97576040517f08c379a0000000000000000000000000000000000000000000000000000000008152600401611f8e9061292c565b60405180910390fd5b5050565b6000611fd2600454600a611faf9190612bfd565b611fc4600654856120a290919063ffffffff16565b61211d90919063ffffffff16565b9050919050565b6000808284611fe89190612b23565b90508381101561202d576040517f08c379a0000000000000000000000000000000000000000000000000000000008152600401612024906128ec565b60405180910390fd5b8091505092915050565b600560009054906101000a900473ffffffffffffffffffffffffffffffffffffffff1673ffffffffffffffffffffffffffffffffffffffff166108fc349081150290604051600060405180830381858888f1935050505015801561209f573d6000803e3d6000fd5b50565b6000808314156120b55760009050612117565b600082846120c39190612d1b565b90508284826120d29190612b79565b14612112576040517f08c379a0000000000000000000000000000000000000000000000000000000008152600401612109906129cc565b60405180910390fd5b809150505b92915050565b600061215f83836040518060400160405280601a81526020017f536166654d6174683a206469766973696f6e206279207a65726f000000000000815250612167565b905092915050565b600080831182906121ae576040517f08c379a00000000000000000000000000000000000000000000000000000000081526004016121a5919061282a565b60405180910390fd5b50600083856121bd9190612b79565b9050809150509392505050565b6000813590506121d98161335f565b92915050565b6000813590506121ee81613376565b92915050565b6000815190506122038161338d565b92915050565b600081359050612218816133a4565b92915050565b60008135905061222d816133bb565b92915050565b600081519050612242816133bb565b92915050565b60006020828403121561225a57600080fd5b6000612268848285016121ca565b91505092915050565b60006020828403121561228357600080fd5b6000612291848285016121df565b91505092915050565b6000602082840312156122ac57600080fd5b60006122ba848285016121f4565b91505092915050565b6000602082840312156122d557600080fd5b60006122e384828501612209565b91505092915050565b6000602082840312156122fe57600080fd5b600061230c8482850161221e565b91505092915050565b60006020828403121561232757600080fd5b600061233584828501612233565b91505092915050565b600080600080600060a0868803121561235657600080fd5b60006123648882890161221e565b95505060206123758882890161221e565b94505060406123868882890161221e565b93505060606123978882890161221e565b92505060806123a88882890161221e565b9150509295509295909350565b6123be81612e15565b82525050565b6123cd81612dbb565b82525050565b6123dc81612da9565b82525050565b6123eb81612dcd565b82525050565b6123fa81612e27565b82525050565b600061240b82612b07565b6124158185612b12565b9350612425818560208601612e6f565b61242e81612f00565b840191505092915050565b6000612446602283612b12565b915061245182612f1e565b604082019050919050565b6000612469602083612b12565b915061247482612f6d565b602082019050919050565b600061248c601b83612b12565b915061249782612f96565b602082019050919050565b60006124af602683612b12565b91506124ba82612fbf565b604082019050919050565b60006124d2601683612b12565b91506124dd8261300e565b602082019050919050565b60006124f5601b83612b12565b915061250082613037565b602082019050919050565b6000612518601383612b12565b915061252382613060565b602082019050919050565b600061253b601083612b12565b915061254682613089565b602082019050919050565b600061255e602a83612b12565b9150612569826130b2565b604082019050919050565b6000612581601283612b12565b915061258c82613101565b602082019050919050565b60006125a4601783612b12565b91506125af8261312a565b602082019050919050565b60006125c7602283612b12565b91506125d282613153565b604082019050919050565b60006125ea602183612b12565b91506125f5826131a2565b604082019050919050565b600061260d602083612b12565b9150612618826131f1565b602082019050919050565b6000612630601383612b12565b915061263b8261321a565b602082019050919050565b6000612653601283612b12565b915061265e82613243565b602082019050919050565b6000612676602a83612b12565b91506126818261326c565b604082019050919050565b6000612699601883612b12565b91506126a4826132bb565b602082019050919050565b60006126bc601f83612b12565b91506126c7826132e4565b602082019050919050565b60006126df601983612b12565b91506126ea8261330d565b602082019050919050565b6000612702601583612b12565b915061270d82613336565b602082019050919050565b61272181612e0b565b82525050565b600060208201905061273c60008301846123d3565b92915050565b600060208201905061275760008301846123c4565b92915050565b600060808201905061277260008301876123b5565b61277f60208301866123d3565b61278c6040830185612718565b6127996060830184612718565b95945050505050565b60006040820190506127b760008301856123b5565b6127c46020830184612718565b9392505050565b60006040820190506127e060008301856123d3565b6127ed6020830184612718565b9392505050565b600060208201905061280960008301846123e2565b92915050565b600060208201905061282460008301846123f1565b92915050565b600060208201905081810360008301526128448184612400565b905092915050565b6000602082019050818103600083015261286581612439565b9050919050565b600060208201905081810360008301526128858161245c565b9050919050565b600060208201905081810360008301526128a58161247f565b9050919050565b600060208201905081810360008301526128c5816124a2565b9050919050565b600060208201905081810360008301526128e5816124c5565b9050919050565b60006020820190508181036000830152612905816124e8565b9050919050565b600060208201905081810360008301526129258161250b565b9050919050565b600060208201905081810360008301526129458161252e565b9050919050565b6000602082019050818103600083015261296581612551565b9050919050565b6000602082019050818103600083015261298581612574565b9050919050565b600060208201905081810360008301526129a581612597565b9050919050565b600060208201905081810360008301526129c5816125ba565b9050919050565b600060208201905081810360008301526129e5816125dd565b9050919050565b60006020820190508181036000830152612a0581612600565b9050919050565b60006020820190508181036000830152612a2581612623565b9050919050565b60006020820190508181036000830152612a4581612646565b9050919050565b60006020820190508181036000830152612a6581612669565b9050919050565b60006020820190508181036000830152612a858161268c565b9050919050565b60006020820190508181036000830152612aa5816126af565b9050919050565b60006020820190508181036000830152612ac5816126d2565b9050919050565b60006020820190508181036000830152612ae5816126f5565b9050919050565b6000602082019050612b016000830184612718565b92915050565b600081519050919050565b600082825260208201905092915050565b6000612b2e82612e0b565b9150612b3983612e0b565b9250827fffffffffffffffffffffffffffffffffffffffffffffffffffffffffffffffff03821115612b6e57612b6d612ea2565b5b828201905092915050565b6000612b8482612e0b565b9150612b8f83612e0b565b925082612b9f57612b9e612ed1565b5b828204905092915050565b6000808291508390505b6001851115612bf457808604811115612bd057612bcf612ea2565b5b6001851615612bdf5780820291505b8081029050612bed85612f11565b9450612bb4565b94509492505050565b6000612c0882612e0b565b9150612c1383612e0b565b9250612c407fffffffffffffffffffffffffffffffffffffffffffffffffffffffffffffffff8484612c48565b905092915050565b600082612c585760019050612d14565b81612c665760009050612d14565b8160018114612c7c5760028114612c8657612cb5565b6001915050612d14565b60ff841115612c9857612c97612ea2565b5b8360020a915084821115612caf57612cae612ea2565b5b50612d14565b5060208310610133831016604e8410600b8410161715612cea5782820a905083811115612ce557612ce4612ea2565b5b612d14565b612cf78484846001612baa565b92509050818404811115612d0e57612d0d612ea2565b5b81810290505b9392505050565b6000612d2682612e0b565b9150612d3183612e0b565b9250817fffffffffffffffffffffffffffffffffffffffffffffffffffffffffffffffff0483118215151615612d6a57612d69612ea2565b5b828202905092915050565b6000612d8082612e0b565b9150612d8b83612e0b565b925082821015612d9e57612d9d612ea2565b5b828203905092915050565b6000612db482612deb565b9050919050565b6000612dc682612deb565b9050919050565b60008115159050919050565b6000612de482612da9565b9050919050565b600073ffffffffffffffffffffffffffffffffffffffff82169050919050565b6000819050919050565b6000612e2082612e4b565b9050919050565b6000612e3282612e39565b9050919050565b6000612e4482612deb565b9050919050565b6000612e5682612e5d565b9050919050565b6000612e6882612deb565b9050919050565b60005b83811015612e8d578082015181840152602081019050612e72565b83811115612e9c576000848401525b50505050565b7f4e487b7100000000000000000000000000000000000000000000000000000000600052601160045260246000fd5b7f4e487b7100000000000000000000000000000000000000000000000000000000600052601260045260246000fd5b6000601f19601f8301169050919050565b60008160011c9050919050565b7f536f6674636170206d757374206265206c6f776572207468616e20486172646360008201527f6170000000000000000000000000000000000000000000000000000000000000602082015250565b7f63616e277420627579206d6f7265207468616e3a206d61785075726368617365600082015250565b7f617661696c61626c65546f6b656e73206d757374206265203e20300000000000600082015250565b7f4f776e61626c653a206e6577206f776e657220697320746865207a65726f206160008201527f6464726573730000000000000000000000000000000000000000000000000000602082015250565b7f6475726174696f6e2073686f756c64206265203e203000000000000000000000600082015250565b7f536166654d6174683a206164646974696f6e206f766572666c6f770000000000600082015250565b7f6e6f20726566756e6420617661696c61626c6500000000000000000000000000600082015250565b7f4861726420436170207265616368656400000000000000000000000000000000600082015250565b7f6d696e5075726368617365206d757374206265206c6f776572207468616e206d60008201527f6178507572636861736500000000000000000000000000000000000000000000602082015250565b7f49434f206d757374206265206163746976650000000000000000000000000000600082015250565b7f5f6d696e50757263686173652073686f756c64203e2030000000000000000000600082015250565b7f6861766520746f2073656e64206174206c656173743a206d696e50757263686160008201527f7365000000000000000000000000000000000000000000000000000000000000602082015250565b7f536166654d6174683a206d756c7469706c69636174696f6e206f766572666c6f60008201527f7700000000000000000000000000000000000000000000000000000000000000602082015250565b7f4f776e61626c653a2063616c6c6572206973206e6f7420746865206f776e6572600082015250565b7f4245502d32302062616c616e6365206973203000000000000000000000000000600082015250565b7f5072652d53616c6520697320636c6f7365640000000000000000000000000000600082015250565b7f43726f776473616c653a2062656e656669636961727920697320746865207a6560008201527f726f206164647265737300000000000000000000000000000000000000000000602082015250565b7f49434f2073686f756c64206e6f74206265206163746976650000000000000000600082015250565b7f5265656e7472616e637947756172643a207265656e7472616e742063616c6c00600082015250565b7f43726f776473616c653a20776569416d6f756e74206973203000000000000000600082015250565b7f436f6e747261637420686173206e6f206d6f6e65790000000000000000000000600082015250565b61336881612da9565b811461337357600080fd5b50565b61337f81612dbb565b811461338a57600080fd5b50565b61339681612dcd565b81146133a157600080fd5b50565b6133ad81612dd9565b81146133b857600080fd5b50565b6133c481612e0b565b81146133cf57600080fd5b5056fea2646970667358221220c83754b64130fab6456bce449f17995e93198794948c5d6c5475ad1d5caf905264736f6c63430008040033",
  "linkReferences": {},
  "deployedLinkReferences": {}
}