{
  "_format": "hh-sol-artifact-1",
  "contractName": "Presale",
  "sourceName": "contracts/Presale.sol",
  "abi": [
    {
      "inputs": [
        {
          "internalType": "uint256",
          "name": "rate",
          "type": "uint256"
        },
        {
          "internalType": "address payable",
          "name": "wallet",
          "type": "address"
        },
        {
          "internalType": "contract IERC20",
          "name": "token",
          "type": "address"
        },
        {
          "internalType": "uint256",
          "name": "tokenDecimals",
          "type": "uint256"
        }
      ],
      "stateMutability": "nonpayable",
      "type": "constructor"
    },
    {
      "anonymous": false,
      "inputs": [
        {
          "indexed": true,
          "internalType": "address",
          "name": "previousOwner",
          "type": "address"
        },
        {
          "indexed": true,
          "internalType": "address",
          "name": "newOwner",
          "type": "address"
        }
      ],
      "name": "OwnershipTransferred",
      "type": "event"
    },
    {
      "anonymous": false,
      "inputs": [
        {
          "indexed": false,
          "internalType": "address",
          "name": "recipient",
          "type": "address"
        },
        {
          "indexed": false,
          "internalType": "uint256",
          "name": "amount",
          "type": "uint256"
        }
      ],
      "name": "Refund",
      "type": "event"
    },
    {
      "anonymous": false,
      "inputs": [
        {
          "indexed": false,
          "internalType": "address",
          "name": "purchaser",
          "type": "address"
        },
        {
          "indexed": false,
          "internalType": "address",
          "name": "beneficiary",
          "type": "address"
        },
        {
          "indexed": false,
          "internalType": "uint256",
          "name": "value",
          "type": "uint256"
        },
        {
          "indexed": false,
          "internalType": "uint256",
          "name": "amount",
          "type": "uint256"
        }
      ],
      "name": "TokensPurchased",
      "type": "event"
    },
    {
      "inputs": [
        {
          "internalType": "address",
          "name": "",
          "type": "address"
        }
      ],
      "name": "_contributions",
      "outputs": [
        {
          "internalType": "uint256",
          "name": "",
          "type": "uint256"
        }
      ],
      "stateMutability": "view",
      "type": "function"
    },
    {
      "inputs": [
        {
          "internalType": "uint256",
          "name": "weiAmount",
          "type": "uint256"
        }
      ],
      "name": "_getTokenAmount",
      "outputs": [
        {
          "internalType": "uint256",
          "name": "",
          "type": "uint256"
        }
      ],
      "stateMutability": "view",
      "type": "function"
    },
    {
      "inputs": [],
      "name": "_rate",
      "outputs": [
        {
          "internalType": "uint256",
          "name": "",
          "type": "uint256"
        }
      ],
      "stateMutability": "view",
      "type": "function"
    },
    {
      "inputs": [],
      "name": "_token",
      "outputs": [
        {
          "internalType": "contract IERC20",
          "name": "",
          "type": "address"
        }
      ],
      "stateMutability": "view",
      "type": "function"
    },
    {
      "inputs": [],
      "name": "_wallet",
      "outputs": [
        {
          "internalType": "address payable",
          "name": "",
          "type": "address"
        }
      ],
      "stateMutability": "view",
      "type": "function"
    },
    {
      "inputs": [],
      "name": "_weiRaised",
      "outputs": [
        {
          "internalType": "uint256",
          "name": "",
          "type": "uint256"
        }
      ],
      "stateMutability": "view",
      "type": "function"
    },
    {
      "inputs": [],
      "name": "availableTokensICO",
      "outputs": [
        {
          "internalType": "uint256",
          "name": "",
          "type": "uint256"
        }
      ],
      "stateMutability": "view",
      "type": "function"
    },
    {
      "inputs": [
        {
          "internalType": "address",
          "name": "beneficiary",
          "type": "address"
        }
      ],
      "name": "buyTokens",
      "outputs": [],
      "stateMutability": "payable",
      "type": "function"
    },
    {
      "inputs": [
        {
          "internalType": "address",
          "name": "addr",
          "type": "address"
        }
      ],
      "name": "checkContribution",
      "outputs": [
        {
          "internalType": "uint256",
          "name": "",
          "type": "uint256"
        }
      ],
      "stateMutability": "view",
      "type": "function"
    },
    {
      "inputs": [],
      "name": "claimTokens",
      "outputs": [],
      "stateMutability": "nonpayable",
      "type": "function"
    },
    {
      "inputs": [],
      "name": "endICO",
      "outputs": [
        {
          "internalType": "uint256",
          "name": "",
          "type": "uint256"
        }
      ],
      "stateMutability": "view",
      "type": "function"
    },
    {
      "inputs": [],
      "name": "getEndDate",
      "outputs": [
        {
          "internalType": "uint256",
          "name": "",
          "type": "uint256"
        }
      ],
      "stateMutability": "view",
      "type": "function"
    },
    {
      "inputs": [],
      "name": "getTimeStamp",
      "outputs": [
        {
          "internalType": "uint256",
          "name": "",
          "type": "uint256"
        }
      ],
      "stateMutability": "view",
      "type": "function"
    },
    {
      "inputs": [],
      "name": "hardCap",
      "outputs": [
        {
          "internalType": "uint256",
          "name": "",
          "type": "uint256"
        }
      ],
      "stateMutability": "view",
      "type": "function"
    },
    {
      "inputs": [],
      "name": "maxPurchase",
      "outputs": [
        {
          "internalType": "uint256",
          "name": "",
          "type": "uint256"
        }
      ],
      "stateMutability": "view",
      "type": "function"
    },
    {
      "inputs": [],
      "name": "minPurchase",
      "outputs": [
        {
          "internalType": "uint256",
          "name": "",
          "type": "uint256"
        }
      ],
      "stateMutability": "view",
      "type": "function"
    },
    {
      "inputs": [],
      "name": "owner",
      "outputs": [
        {
          "internalType": "address",
          "name": "",
          "type": "address"
        }
      ],
      "stateMutability": "view",
      "type": "function"
    },
    {
      "inputs": [],
      "name": "refundMe",
      "outputs": [],
      "stateMutability": "nonpayable",
      "type": "function"
    },
    {
      "inputs": [],
      "name": "refundStartDate",
      "outputs": [
        {
          "internalType": "uint256",
          "name": "",
          "type": "uint256"
        }
      ],
      "stateMutability": "view",
      "type": "function"
    },
    {
      "inputs": [
        {
          "internalType": "uint256",
          "name": "amount",
          "type": "uint256"
        }
      ],
      "name": "setAvailableTokens",
      "outputs": [],
      "stateMutability": "nonpayable",
      "type": "function"
    },
    {
      "inputs": [
        {
          "internalType": "uint256",
          "name": "value",
          "type": "uint256"
        }
      ],
      "name": "setHardCap",
      "outputs": [],
      "stateMutability": "nonpayable",
      "type": "function"
    },
    {
      "inputs": [
        {
          "internalType": "uint256",
          "name": "value",
          "type": "uint256"
        }
      ],
      "name": "setMaxPurchase",
      "outputs": [],
      "stateMutability": "nonpayable",
      "type": "function"
    },
    {
      "inputs": [
        {
          "internalType": "uint256",
          "name": "value",
          "type": "uint256"
        }
      ],
      "name": "setMinPurchase",
      "outputs": [],
      "stateMutability": "nonpayable",
      "type": "function"
    },
    {
      "inputs": [
        {
          "internalType": "uint256",
          "name": "newRate",
          "type": "uint256"
        }
      ],
      "name": "setRate",
      "outputs": [],
      "stateMutability": "nonpayable",
      "type": "function"
    },
    {
      "inputs": [
        {
          "internalType": "uint256",
          "name": "value",
          "type": "uint256"
        }
      ],
      "name": "setSoftCap",
      "outputs": [],
      "stateMutability": "nonpayable",
      "type": "function"
    },
    {
      "inputs": [
        {
          "internalType": "address payable",
          "name": "newWallet",
          "type": "address"
        }
      ],
      "name": "setWalletReceiver",
      "outputs": [],
      "stateMutability": "nonpayable",
      "type": "function"
    },
    {
      "inputs": [],
      "name": "softCap",
      "outputs": [
        {
          "internalType": "uint256",
          "name": "",
          "type": "uint256"
        }
      ],
      "stateMutability": "view",
      "type": "function"
    },
    {
      "inputs": [
        {
          "internalType": "uint256",
          "name": "endDate",
          "type": "uint256"
        },
        {
          "internalType": "uint256",
          "name": "_minPurchase",
          "type": "uint256"
        },
        {
          "internalType": "uint256",
          "name": "_maxPurchase",
          "type": "uint256"
        },
        {
          "internalType": "uint256",
          "name": "_softCap",
          "type": "uint256"
        },
        {
          "internalType": "uint256",
          "name": "_hardCap",
          "type": "uint256"
        }
      ],
      "name": "startICO",
      "outputs": [],
      "stateMutability": "nonpayable",
      "type": "function"
    },
    {
      "inputs": [],
      "name": "startRefund",
      "outputs": [
        {
          "internalType": "bool",
          "name": "",
          "type": "bool"
        }
      ],
      "stateMutability": "view",
      "type": "function"
    },
    {
      "inputs": [],
      "name": "stopICO",
      "outputs": [],
      "stateMutability": "nonpayable",
      "type": "function"
    },
    {
      "inputs": [
        {
          "internalType": "contract IERC20",
          "name": "tokenAddress",
          "type": "address"
        }
      ],
      "name": "takeTokens",
      "outputs": [],
      "stateMutability": "nonpayable",
      "type": "function"
    },
    {
      "inputs": [
        {
          "internalType": "address",
          "name": "newOwner",
          "type": "address"
        }
      ],
      "name": "transferOwnership",
      "outputs": [],
      "stateMutability": "nonpayable",
      "type": "function"
    },
    {
      "inputs": [],
      "name": "weiRaised",
      "outputs": [
        {
          "internalType": "uint256",
          "name": "",
          "type": "uint256"
        }
      ],
      "stateMutability": "view",
      "type": "function"
    },
    {
      "inputs": [],
      "name": "withdraw",
      "outputs": [],
      "stateMutability": "nonpayable",
      "type": "function"
    },
    {
      "stateMutability": "payable",
      "type": "receive"
    }
  ],
  "bytecode": "0x60806040526000600e60006101000a81548160ff0219169083151502179055503480156200002c57600080fd5b5060405162003ac938038062003ac983398181016040528101906200005291906200032c565b600160008190555060006200006c620002df60201b60201c565b905080600160006101000a81548173ffffffffffffffffffffffffffffffffffffffff021916908373ffffffffffffffffffffffffffffffffffffffff1602179055508073ffffffffffffffffffffffffffffffffffffffff16600073ffffffffffffffffffffffffffffffffffffffff167f8be0079c531659141344cd1fd0a4f28419497f9722a3daafe3b4186f6b6457e060405160405180910390a3506000841162000151576040517f08c379a0000000000000000000000000000000000000000000000000000000008152600401620001489062000451565b60405180910390fd5b600073ffffffffffffffffffffffffffffffffffffffff168373ffffffffffffffffffffffffffffffffffffffff161415620001c4576040517f08c379a0000000000000000000000000000000000000000000000000000000008152600401620001bb906200040d565b60405180910390fd5b600073ffffffffffffffffffffffffffffffffffffffff168273ffffffffffffffffffffffffffffffffffffffff16141562000237576040517f08c379a00000000000000000000000000000000000000000000000000000000081526004016200022e906200042f565b60405180910390fd5b8360068190555082600560006101000a81548173ffffffffffffffffffffffffffffffffffffffff021916908373ffffffffffffffffffffffffffffffffffffffff16021790555081600360006101000a81548173ffffffffffffffffffffffffffffffffffffffff021916908373ffffffffffffffffffffffffffffffffffffffff160217905550806012620002cf919062000484565b6004819055505050505062000669565b600033905090565b600081519050620002f8816200061b565b92915050565b6000815190506200030f8162000635565b92915050565b60008151905062000326816200064f565b92915050565b600080600080608085870312156200034357600080fd5b6000620003538782880162000315565b94505060206200036687828801620002e7565b93505060406200037987828801620002fe565b92505060606200038c8782880162000315565b91505092959194509250565b6000620003a760248362000473565b9150620003b48262000554565b604082019050919050565b6000620003ce60238362000473565b9150620003db82620005a3565b604082019050919050565b6000620003f560138362000473565b91506200040282620005f2565b602082019050919050565b60006020820190508181036000830152620004288162000398565b9050919050565b600060208201905081810360008301526200044a81620003bf565b9050919050565b600060208201905081810360008301526200046c81620003e6565b9050919050565b600082825260208201905092915050565b600062000491826200051b565b91506200049e836200051b565b925082821015620004b457620004b362000525565b5b828203905092915050565b6000620004cc82620004fb565b9050919050565b6000620004e082620004fb565b9050919050565b6000620004f482620004bf565b9050919050565b600073ffffffffffffffffffffffffffffffffffffffff82169050919050565b6000819050919050565b7f4e487b7100000000000000000000000000000000000000000000000000000000600052601160045260246000fd5b7f5072652d53616c653a2077616c6c657420697320746865207a65726f2061646460008201527f7265737300000000000000000000000000000000000000000000000000000000602082015250565b7f5072652d53616c653a20746f6b656e20697320746865207a65726f206164647260008201527f6573730000000000000000000000000000000000000000000000000000000000602082015250565b7f5072652d53616c653a2072617465206973203000000000000000000000000000600082015250565b6200062681620004d3565b81146200063257600080fd5b50565b6200064081620004e7565b81146200064c57600080fd5b50565b6200065a816200051b565b81146200066657600080fd5b50565b61345080620006796000396000f3fe6080604052600436106101fd5760003560e01c8063a41a028b1161010d578063da235b22116100a0578063ec8ac4d81161006f578063ec8ac4d81461072e578063ecd0c0c31461074a578063f2fde38b14610775578063f6d893ec1461079e578063fb86a404146107c757610274565b8063da235b2214610686578063e3cef7a1146106b1578063e8307d00146106da578063e9fdfd9f1461070357610274565b8063c8e569a8116100dc578063c8e569a8146105f4578063d18d944b1461060b578063d572d5f714610634578063d5cf5c721461065d57610274565b8063a41a028b14610536578063ab0ced0e14610561578063adf4a1441461059e578063b1356488146105c957610274565b80635a9e426b1161019057806383bebced1161015f57806383bebced1461045f5780638da5cb5b1461048a578063906a26e0146104b557806394a5aa8d146104e0578063977b055b1461050b57610274565b80635a9e426b146103b7578063610757e4146103ce57806371189742146103f95780637a99bb0a1461042257610274565b80633ccfd60b116101cc5780633ccfd60b146103335780634042b66f1461034a57806348c54b9d146103755780634f2484091461038c57610274565b80631e6a610d14610279578063298b6a9f146102b657806333b5b62e146102df57806334fcf4371461030a57610274565b36610274576000600854118015610215575060085442105b1561022f5761022a6102256107f2565b6107fa565b610272565b60006008819055506040517f08c379a000000000000000000000000000000000000000000000000000000000815260040161026990612a74565b60405180910390fd5b005b600080fd5b34801561028557600080fd5b506102a0600480360381019061029b9190612290565b6109d9565b6040516102ad9190612b34565b60405180910390f35b3480156102c257600080fd5b506102dd60048036038101906102d89190612386565b6109f1565b005b3480156102eb57600080fd5b506102f4610d20565b6040516103019190612b34565b60405180910390f35b34801561031657600080fd5b50610331600480360381019061032c9190612334565b610d26565b005b34801561033f57600080fd5b50610348610e0b565b005b34801561035657600080fd5b5061035f610fce565b60405161036c9190612b34565b60405180910390f35b34801561038157600080fd5b5061038a610fd8565b005b34801561039857600080fd5b506103a1611180565b6040516103ae9190612b34565b60405180910390f35b3480156103c357600080fd5b506103cc611186565b005b3480156103da57600080fd5b506103e3611344565b6040516103f0919061278a565b60405180910390f35b34801561040557600080fd5b50610420600480360381019061041b9190612334565b61136a565b005b34801561042e57600080fd5b5061044960048036038101906104449190612334565b61140b565b6040516104569190612b34565b60405180910390f35b34801561046b57600080fd5b50610474611449565b6040516104819190612b34565b60405180910390f35b34801561049657600080fd5b5061049f61144f565b6040516104ac919061276f565b60405180910390f35b3480156104c157600080fd5b506104ca611479565b6040516104d79190612b34565b60405180910390f35b3480156104ec57600080fd5b506104f561147f565b6040516105029190612b34565b60405180910390f35b34801561051757600080fd5b50610520611485565b60405161052d9190612b34565b60405180910390f35b34801561054257600080fd5b5061054b61148b565b6040516105589190612b34565b60405180910390f35b34801561056d57600080fd5b5061058860048036038101906105839190612290565b611491565b6040516105959190612b34565b60405180910390f35b3480156105aa57600080fd5b506105b36114da565b6040516105c0919061283c565b60405180910390f35b3480156105d557600080fd5b506105de6114ed565b6040516105eb9190612b34565b60405180910390f35b34801561060057600080fd5b506106096114f7565b005b34801561061757600080fd5b50610632600480360381019061062d9190612334565b611633565b005b34801561064057600080fd5b5061065b600480360381019061065691906122b9565b6116d4565b005b34801561066957600080fd5b50610684600480360381019061067f9190612334565b6117af565b005b34801561069257600080fd5b5061069b611850565b6040516106a89190612b34565b60405180910390f35b3480156106bd57600080fd5b506106d860048036038101906106d3919061230b565b611858565b005b3480156106e657600080fd5b5061070160048036038101906106fc9190612334565b611abd565b005b34801561070f57600080fd5b50610718611b5e565b6040516107259190612b34565b60405180910390f35b61074860048036038101906107439190612290565b6107fa565b005b34801561075657600080fd5b5061075f611b64565b60405161076c9190612857565b60405180910390f35b34801561078157600080fd5b5061079c60048036038101906107979190612290565b611b8a565b005b3480156107aa57600080fd5b506107c560048036038101906107c09190612334565b611d51565b005b3480156107d357600080fd5b506107dc611e36565b6040516107e99190612b34565b60405180910390f35b600033905090565b60026000541415610840576040517f08c379a000000000000000000000000000000000000000000000000000000000815260040161083790612ad4565b60405180910390fd5b6002600081905550600060085411801561085b575060085442105b801561086957506000600d54115b6108a8576040517f08c379a000000000000000000000000000000000000000000000000000000000815260040161089f906129b4565b60405180910390fd5b60003490506108b78282611e3c565b60006108c28261140b565b90506108d98260075461202190919063ffffffff16565b60078190555080600d546108ed9190612dbd565b600d8190555061094582600260008673ffffffffffffffffffffffffffffffffffffffff1673ffffffffffffffffffffffffffffffffffffffff1681526020019081526020016000205461202190919063ffffffff16565b600260008573ffffffffffffffffffffffffffffffffffffffff1673ffffffffffffffffffffffffffffffffffffffff168152602001908152602001600020819055507f6faf93231a456e552dbc9961f58d9713ee4f2e69d15f1975b050ef0911053a7b6109b16107f2565b8484846040516109c494939291906127a5565b60405180910390a15050600160008190555050565b60026020528060005260406000206000915090505481565b6109f96107f2565b73ffffffffffffffffffffffffffffffffffffffff16600160009054906101000a900473ffffffffffffffffffffffffffffffffffffffff1673ffffffffffffffffffffffffffffffffffffffff1614610a88576040517f08c379a0000000000000000000000000000000000000000000000000000000008152600401610a7f90612a34565b60405180910390fd5b4260085410610acc576040517f08c379a0000000000000000000000000000000000000000000000000000000008152600401610ac390612ab4565b60405180910390fd5b6000600e60006101000a81548160ff0219169083151502179055506000600f81905550600360009054906101000a900473ffffffffffffffffffffffffffffffffffffffff1673ffffffffffffffffffffffffffffffffffffffff166370a08231306040518263ffffffff1660e01b8152600401610b4a919061276f565b60206040518083038186803b158015610b6257600080fd5b505afa158015610b76573d6000803e3d6000fd5b505050506040513d601f19601f82011682018060405250810190610b9a919061235d565b600d81905550428511610be2576040517f08c379a0000000000000000000000000000000000000000000000000000000008152600401610bd990612914565b60405180910390fd5b808210610c24576040517f08c379a0000000000000000000000000000000000000000000000000000000008152600401610c1b90612894565b60405180910390fd5b828410610c66576040517f08c379a0000000000000000000000000000000000000000000000000000000008152600401610c5d90612994565b60405180910390fd5b6000600d5411610cab576040517f08c379a0000000000000000000000000000000000000000000000000000000008152600401610ca2906128d4565b60405180910390fd5b60008411610cee576040517f08c379a0000000000000000000000000000000000000000000000000000000008152600401610ce5906129d4565b60405180910390fd5b846008819055508360098190555082600a8190555081600c8190555080600b8190555060006007819055505050505050565b60095481565b610d2e6107f2565b73ffffffffffffffffffffffffffffffffffffffff16600160009054906101000a900473ffffffffffffffffffffffffffffffffffffffff1673ffffffffffffffffffffffffffffffffffffffff1614610dbd576040517f08c379a0000000000000000000000000000000000000000000000000000000008152600401610db490612a34565b60405180910390fd5b4260085410610e01576040517f08c379a0000000000000000000000000000000000000000000000000000000008152600401610df890612ab4565b60405180910390fd5b8060068190555050565b610e136107f2565b73ffffffffffffffffffffffffffffffffffffffff16600160009054906101000a900473ffffffffffffffffffffffffffffffffffffffff1673ffffffffffffffffffffffffffffffffffffffff1614610ea2576040517f08c379a0000000000000000000000000000000000000000000000000000000008152600401610e9990612a34565b60405180910390fd5b4260085410610ee6576040517f08c379a0000000000000000000000000000000000000000000000000000000008152600401610edd90612ab4565b60405180910390fd5b60001515600e60009054906101000a900460ff1615151480610f175750426203f480600f54610f159190612b6b565b105b610f2057600080fd5b60004711610f63576040517f08c379a0000000000000000000000000000000000000000000000000000000008152600401610f5a90612b14565b60405180910390fd5b600560009054906101000a900473ffffffffffffffffffffffffffffffffffffffff1673ffffffffffffffffffffffffffffffffffffffff166108fc479081150290604051600060405180830381858888f19350505050158015610fcb573d6000803e3d6000fd5b50565b6000600754905090565b426008541061101c576040517f08c379a000000000000000000000000000000000000000000000000000000000815260040161101390612ab4565b60405180910390fd5b60001515600e60009054906101000a900460ff1615151461103c57600080fd5b6000611086600260003373ffffffffffffffffffffffffffffffffffffffff1673ffffffffffffffffffffffffffffffffffffffff1681526020019081526020016000205461140b565b90506000600260003373ffffffffffffffffffffffffffffffffffffffff1673ffffffffffffffffffffffffffffffffffffffff16815260200190815260200160002081905550600360009054906101000a900473ffffffffffffffffffffffffffffffffffffffff1673ffffffffffffffffffffffffffffffffffffffff1663a9059cbb33836040518363ffffffff1660e01b815260040161112a929190612813565b602060405180830381600087803b15801561114457600080fd5b505af1158015611158573d6000803e3d6000fd5b505050506040513d601f19601f8201168201806040525081019061117c91906122e2565b5050565b60085481565b42600854106111ca576040517f08c379a00000000000000000000000000000000000000000000000000000000081526004016111c190612ab4565b60405180910390fd5b60011515600e60009054906101000a900460ff16151514611220576040517f08c379a000000000000000000000000000000000000000000000000000000000815260040161121790612954565b60405180910390fd5b6000600260003373ffffffffffffffffffffffffffffffffffffffff1673ffffffffffffffffffffffffffffffffffffffff168152602001908152602001600020549050804710611341576000600260003373ffffffffffffffffffffffffffffffffffffffff1673ffffffffffffffffffffffffffffffffffffffff1681526020019081526020016000208190555060008111156113405760003390508073ffffffffffffffffffffffffffffffffffffffff166108fc839081150290604051600060405180830381858888f19350505050158015611304573d6000803e3d6000fd5b507fbb28353e4598c3b9199101a66e0989549b659a59a54d2c27fbb183f1932c8e6d3383604051611336929190612813565b60405180910390a1505b5b50565b600560009054906101000a900473ffffffffffffffffffffffffffffffffffffffff1681565b6113726107f2565b73ffffffffffffffffffffffffffffffffffffffff16600160009054906101000a900473ffffffffffffffffffffffffffffffffffffffff1673ffffffffffffffffffffffffffffffffffffffff1614611401576040517f08c379a00000000000000000000000000000000000000000000000000000000081526004016113f890612a34565b60405180910390fd5b80600a8190555050565b6000611442600454600a61141f9190612c45565b6114346006548561207f90919063ffffffff16565b6120fa90919063ffffffff16565b9050919050565b60065481565b6000600160009054906101000a900473ffffffffffffffffffffffffffffffffffffffff16905090565b600c5481565b60075481565b600a5481565b600d5481565b6000600260008373ffffffffffffffffffffffffffffffffffffffff1673ffffffffffffffffffffffffffffffffffffffff168152602001908152602001600020549050919050565b600e60009054906101000a900460ff1681565b6000600854905090565b6114ff6107f2565b73ffffffffffffffffffffffffffffffffffffffff16600160009054906101000a900473ffffffffffffffffffffffffffffffffffffffff1673ffffffffffffffffffffffffffffffffffffffff161461158e576040517f08c379a000000000000000000000000000000000000000000000000000000000815260040161158590612a34565b60405180910390fd5b60006008541180156115a1575060085442105b80156115af57506000600d54115b6115ee576040517f08c379a00000000000000000000000000000000000000000000000000000000081526004016115e5906129b4565b60405180910390fd5b6000600881905550600c546007541061160e57611609612144565b611631565b6001600e60006101000a81548160ff02191690831515021790555042600f819055505b565b61163b6107f2565b73ffffffffffffffffffffffffffffffffffffffff16600160009054906101000a900473ffffffffffffffffffffffffffffffffffffffff1673ffffffffffffffffffffffffffffffffffffffff16146116ca576040517f08c379a00000000000000000000000000000000000000000000000000000000081526004016116c190612a34565b60405180910390fd5b80600b8190555050565b6116dc6107f2565b73ffffffffffffffffffffffffffffffffffffffff16600160009054906101000a900473ffffffffffffffffffffffffffffffffffffffff1673ffffffffffffffffffffffffffffffffffffffff161461176b576040517f08c379a000000000000000000000000000000000000000000000000000000000815260040161176290612a34565b60405180910390fd5b80600560006101000a81548173ffffffffffffffffffffffffffffffffffffffff021916908373ffffffffffffffffffffffffffffffffffffffff16021790555050565b6117b76107f2565b73ffffffffffffffffffffffffffffffffffffffff16600160009054906101000a900473ffffffffffffffffffffffffffffffffffffffff1673ffffffffffffffffffffffffffffffffffffffff1614611846576040517f08c379a000000000000000000000000000000000000000000000000000000000815260040161183d90612a34565b60405180910390fd5b80600c8190555050565b600042905090565b6118606107f2565b73ffffffffffffffffffffffffffffffffffffffff16600160009054906101000a900473ffffffffffffffffffffffffffffffffffffffff1673ffffffffffffffffffffffffffffffffffffffff16146118ef576040517f08c379a00000000000000000000000000000000000000000000000000000000081526004016118e690612a34565b60405180910390fd5b4260085410611933576040517f08c379a000000000000000000000000000000000000000000000000000000000815260040161192a90612ab4565b60405180910390fd5b600081905060008173ffffffffffffffffffffffffffffffffffffffff166370a08231306040518263ffffffff1660e01b8152600401611973919061276f565b60206040518083038186803b15801561198b57600080fd5b505afa15801561199f573d6000803e3d6000fd5b505050506040513d601f19601f820116820180604052508101906119c3919061235d565b905060008111611a08576040517f08c379a00000000000000000000000000000000000000000000000000000000081526004016119ff90612a54565b60405180910390fd5b8173ffffffffffffffffffffffffffffffffffffffff1663a9059cbb600560009054906101000a900473ffffffffffffffffffffffffffffffffffffffff16836040518363ffffffff1660e01b8152600401611a659291906127ea565b602060405180830381600087803b158015611a7f57600080fd5b505af1158015611a93573d6000803e3d6000fd5b505050506040513d601f19601f82011682018060405250810190611ab791906122e2565b50505050565b611ac56107f2565b73ffffffffffffffffffffffffffffffffffffffff16600160009054906101000a900473ffffffffffffffffffffffffffffffffffffffff1673ffffffffffffffffffffffffffffffffffffffff1614611b54576040517f08c379a0000000000000000000000000000000000000000000000000000000008152600401611b4b90612a34565b60405180910390fd5b8060098190555050565b600f5481565b600360009054906101000a900473ffffffffffffffffffffffffffffffffffffffff1681565b611b926107f2565b73ffffffffffffffffffffffffffffffffffffffff16600160009054906101000a900473ffffffffffffffffffffffffffffffffffffffff1673ffffffffffffffffffffffffffffffffffffffff1614611c21576040517f08c379a0000000000000000000000000000000000000000000000000000000008152600401611c1890612a34565b60405180910390fd5b600073ffffffffffffffffffffffffffffffffffffffff168173ffffffffffffffffffffffffffffffffffffffff161415611c91576040517f08c379a0000000000000000000000000000000000000000000000000000000008152600401611c88906128f4565b60405180910390fd5b8073ffffffffffffffffffffffffffffffffffffffff16600160009054906101000a900473ffffffffffffffffffffffffffffffffffffffff1673ffffffffffffffffffffffffffffffffffffffff167f8be0079c531659141344cd1fd0a4f28419497f9722a3daafe3b4186f6b6457e060405160405180910390a380600160006101000a81548173ffffffffffffffffffffffffffffffffffffffff021916908373ffffffffffffffffffffffffffffffffffffffff16021790555050565b611d596107f2565b73ffffffffffffffffffffffffffffffffffffffff16600160009054906101000a900473ffffffffffffffffffffffffffffffffffffffff1673ffffffffffffffffffffffffffffffffffffffff1614611de8576040517f08c379a0000000000000000000000000000000000000000000000000000000008152600401611ddf90612a34565b60405180910390fd5b4260085410611e2c576040517f08c379a0000000000000000000000000000000000000000000000000000000008152600401611e2390612ab4565b60405180910390fd5b80600d8190555050565b600b5481565b600073ffffffffffffffffffffffffffffffffffffffff168273ffffffffffffffffffffffffffffffffffffffff161415611eac576040517f08c379a0000000000000000000000000000000000000000000000000000000008152600401611ea390612a94565b60405180910390fd5b6000811415611ef0576040517f08c379a0000000000000000000000000000000000000000000000000000000008152600401611ee790612af4565b60405180910390fd5b600954811015611f35576040517f08c379a0000000000000000000000000000000000000000000000000000000008152600401611f2c906129f4565b60405180910390fd5b600a54611f8a82600260008673ffffffffffffffffffffffffffffffffffffffff1673ffffffffffffffffffffffffffffffffffffffff1681526020019081526020016000205461202190919063ffffffff16565b1115611fcb576040517f08c379a0000000000000000000000000000000000000000000000000000000008152600401611fc2906128b4565b60405180910390fd5b600b5481600754611fdc9190612b6b565b111561201d576040517f08c379a000000000000000000000000000000000000000000000000000000000815260040161201490612974565b60405180910390fd5b5050565b60008082846120309190612b6b565b905083811015612075576040517f08c379a000000000000000000000000000000000000000000000000000000000815260040161206c90612934565b60405180910390fd5b8091505092915050565b60008083141561209257600090506120f4565b600082846120a09190612d63565b90508284826120af9190612bc1565b146120ef576040517f08c379a00000000000000000000000000000000000000000000000000000000081526004016120e690612a14565b60405180910390fd5b809150505b92915050565b600061213c83836040518060400160405280601a81526020017f536166654d6174683a206469766973696f6e206279207a65726f0000000000008152506121af565b905092915050565b600560009054906101000a900473ffffffffffffffffffffffffffffffffffffffff1673ffffffffffffffffffffffffffffffffffffffff166108fc349081150290604051600060405180830381858888f193505050501580156121ac573d6000803e3d6000fd5b50565b600080831182906121f6576040517f08c379a00000000000000000000000000000000000000000000000000000000081526004016121ed9190612872565b60405180910390fd5b50600083856122059190612bc1565b9050809150509392505050565b600081359050612221816133a7565b92915050565b600081359050612236816133be565b92915050565b60008151905061224b816133d5565b92915050565b600081359050612260816133ec565b92915050565b60008135905061227581613403565b92915050565b60008151905061228a81613403565b92915050565b6000602082840312156122a257600080fd5b60006122b084828501612212565b91505092915050565b6000602082840312156122cb57600080fd5b60006122d984828501612227565b91505092915050565b6000602082840312156122f457600080fd5b60006123028482850161223c565b91505092915050565b60006020828403121561231d57600080fd5b600061232b84828501612251565b91505092915050565b60006020828403121561234657600080fd5b600061235484828501612266565b91505092915050565b60006020828403121561236f57600080fd5b600061237d8482850161227b565b91505092915050565b600080600080600060a0868803121561239e57600080fd5b60006123ac88828901612266565b95505060206123bd88828901612266565b94505060406123ce88828901612266565b93505060606123df88828901612266565b92505060806123f088828901612266565b9150509295509295909350565b61240681612e5d565b82525050565b61241581612e03565b82525050565b61242481612df1565b82525050565b61243381612e15565b82525050565b61244281612e6f565b82525050565b600061245382612b4f565b61245d8185612b5a565b935061246d818560208601612eb7565b61247681612f48565b840191505092915050565b600061248e602283612b5a565b915061249982612f66565b604082019050919050565b60006124b1602083612b5a565b91506124bc82612fb5565b602082019050919050565b60006124d4601b83612b5a565b91506124df82612fde565b602082019050919050565b60006124f7602683612b5a565b915061250282613007565b604082019050919050565b600061251a601683612b5a565b915061252582613056565b602082019050919050565b600061253d601b83612b5a565b91506125488261307f565b602082019050919050565b6000612560601383612b5a565b915061256b826130a8565b602082019050919050565b6000612583601083612b5a565b915061258e826130d1565b602082019050919050565b60006125a6602a83612b5a565b91506125b1826130fa565b604082019050919050565b60006125c9601283612b5a565b91506125d482613149565b602082019050919050565b60006125ec601783612b5a565b91506125f782613172565b602082019050919050565b600061260f602283612b5a565b915061261a8261319b565b604082019050919050565b6000612632602183612b5a565b915061263d826131ea565b604082019050919050565b6000612655602083612b5a565b915061266082613239565b602082019050919050565b6000612678601383612b5a565b915061268382613262565b602082019050919050565b600061269b601283612b5a565b91506126a68261328b565b602082019050919050565b60006126be602a83612b5a565b91506126c9826132b4565b604082019050919050565b60006126e1601883612b5a565b91506126ec82613303565b602082019050919050565b6000612704601f83612b5a565b915061270f8261332c565b602082019050919050565b6000612727601983612b5a565b915061273282613355565b602082019050919050565b600061274a601583612b5a565b91506127558261337e565b602082019050919050565b61276981612e53565b82525050565b6000602082019050612784600083018461241b565b92915050565b600060208201905061279f600083018461240c565b92915050565b60006080820190506127ba60008301876123fd565b6127c7602083018661241b565b6127d46040830185612760565b6127e16060830184612760565b95945050505050565b60006040820190506127ff60008301856123fd565b61280c6020830184612760565b9392505050565b6000604082019050612828600083018561241b565b6128356020830184612760565b9392505050565b6000602082019050612851600083018461242a565b92915050565b600060208201905061286c6000830184612439565b92915050565b6000602082019050818103600083015261288c8184612448565b905092915050565b600060208201905081810360008301526128ad81612481565b9050919050565b600060208201905081810360008301526128cd816124a4565b9050919050565b600060208201905081810360008301526128ed816124c7565b9050919050565b6000602082019050818103600083015261290d816124ea565b9050919050565b6000602082019050818103600083015261292d8161250d565b9050919050565b6000602082019050818103600083015261294d81612530565b9050919050565b6000602082019050818103600083015261296d81612553565b9050919050565b6000602082019050818103600083015261298d81612576565b9050919050565b600060208201905081810360008301526129ad81612599565b9050919050565b600060208201905081810360008301526129cd816125bc565b9050919050565b600060208201905081810360008301526129ed816125df565b9050919050565b60006020820190508181036000830152612a0d81612602565b9050919050565b60006020820190508181036000830152612a2d81612625565b9050919050565b60006020820190508181036000830152612a4d81612648565b9050919050565b60006020820190508181036000830152612a6d8161266b565b9050919050565b60006020820190508181036000830152612a8d8161268e565b9050919050565b60006020820190508181036000830152612aad816126b1565b9050919050565b60006020820190508181036000830152612acd816126d4565b9050919050565b60006020820190508181036000830152612aed816126f7565b9050919050565b60006020820190508181036000830152612b0d8161271a565b9050919050565b60006020820190508181036000830152612b2d8161273d565b9050919050565b6000602082019050612b496000830184612760565b92915050565b600081519050919050565b600082825260208201905092915050565b6000612b7682612e53565b9150612b8183612e53565b9250827fffffffffffffffffffffffffffffffffffffffffffffffffffffffffffffffff03821115612bb657612bb5612eea565b5b828201905092915050565b6000612bcc82612e53565b9150612bd783612e53565b925082612be757612be6612f19565b5b828204905092915050565b6000808291508390505b6001851115612c3c57808604811115612c1857612c17612eea565b5b6001851615612c275780820291505b8081029050612c3585612f59565b9450612bfc565b94509492505050565b6000612c5082612e53565b9150612c5b83612e53565b9250612c887fffffffffffffffffffffffffffffffffffffffffffffffffffffffffffffffff8484612c90565b905092915050565b600082612ca05760019050612d5c565b81612cae5760009050612d5c565b8160018114612cc45760028114612cce57612cfd565b6001915050612d5c565b60ff841115612ce057612cdf612eea565b5b8360020a915084821115612cf757612cf6612eea565b5b50612d5c565b5060208310610133831016604e8410600b8410161715612d325782820a905083811115612d2d57612d2c612eea565b5b612d5c565b612d3f8484846001612bf2565b92509050818404811115612d5657612d55612eea565b5b81810290505b9392505050565b6000612d6e82612e53565b9150612d7983612e53565b9250817fffffffffffffffffffffffffffffffffffffffffffffffffffffffffffffffff0483118215151615612db257612db1612eea565b5b828202905092915050565b6000612dc882612e53565b9150612dd383612e53565b925082821015612de657612de5612eea565b5b828203905092915050565b6000612dfc82612e33565b9050919050565b6000612e0e82612e33565b9050919050565b60008115159050919050565b6000612e2c82612df1565b9050919050565b600073ffffffffffffffffffffffffffffffffffffffff82169050919050565b6000819050919050565b6000612e6882612e93565b9050919050565b6000612e7a82612e81565b9050919050565b6000612e8c82612e33565b9050919050565b6000612e9e82612ea5565b9050919050565b6000612eb082612e33565b9050919050565b60005b83811015612ed5578082015181840152602081019050612eba565b83811115612ee4576000848401525b50505050565b7f4e487b7100000000000000000000000000000000000000000000000000000000600052601160045260246000fd5b7f4e487b7100000000000000000000000000000000000000000000000000000000600052601260045260246000fd5b6000601f19601f8301169050919050565b60008160011c9050919050565b7f536f6674636170206d757374206265206c6f776572207468616e20486172646360008201527f6170000000000000000000000000000000000000000000000000000000000000602082015250565b7f63616e277420627579206d6f7265207468616e3a206d61785075726368617365600082015250565b7f617661696c61626c65546f6b656e73206d757374206265203e20300000000000600082015250565b7f4f776e61626c653a206e6577206f776e657220697320746865207a65726f206160008201527f6464726573730000000000000000000000000000000000000000000000000000602082015250565b7f6475726174696f6e2073686f756c64206265203e203000000000000000000000600082015250565b7f536166654d6174683a206164646974696f6e206f766572666c6f770000000000600082015250565b7f6e6f20726566756e6420617661696c61626c6500000000000000000000000000600082015250565b7f4861726420436170207265616368656400000000000000000000000000000000600082015250565b7f6d696e5075726368617365206d757374206265206c6f776572207468616e206d60008201527f6178507572636861736500000000000000000000000000000000000000000000602082015250565b7f49434f206d757374206265206163746976650000000000000000000000000000600082015250565b7f5f6d696e50757263686173652073686f756c64203e2030000000000000000000600082015250565b7f6861766520746f2073656e64206174206c656173743a206d696e50757263686160008201527f7365000000000000000000000000000000000000000000000000000000000000602082015250565b7f536166654d6174683a206d756c7469706c69636174696f6e206f766572666c6f60008201527f7700000000000000000000000000000000000000000000000000000000000000602082015250565b7f4f776e61626c653a2063616c6c6572206973206e6f7420746865206f776e6572600082015250565b7f4245502d32302062616c616e6365206973203000000000000000000000000000600082015250565b7f5072652d53616c6520697320636c6f7365640000000000000000000000000000600082015250565b7f43726f776473616c653a2062656e656669636961727920697320746865207a6560008201527f726f206164647265737300000000000000000000000000000000000000000000602082015250565b7f49434f2073686f756c64206e6f74206265206163746976650000000000000000600082015250565b7f5265656e7472616e637947756172643a207265656e7472616e742063616c6c00600082015250565b7f43726f776473616c653a20776569416d6f756e74206973203000000000000000600082015250565b7f436f6e747261637420686173206e6f206d6f6e65790000000000000000000000600082015250565b6133b081612df1565b81146133bb57600080fd5b50565b6133c781612e03565b81146133d257600080fd5b50565b6133de81612e15565b81146133e957600080fd5b50565b6133f581612e21565b811461340057600080fd5b50565b61340c81612e53565b811461341757600080fd5b5056fea2646970667358221220635c986a2ced29bcf79ba0bbe62fc81e03cf8d87dd4d3470cd02413b6df79a5964736f6c63430008040033",
  "linkReferences": {},
  "deployedLinkReferences": {}
}